{
  "_format": "hh-sol-artifact-1",
  "contractName": "TokenBalanceRetriever",
  "sourceName": "contracts/TokenBalanceRetriever.sol",
  "abi": [
    {
      "inputs": [
        {
          "internalType": "address",
          "name": "wallet",
          "type": "address"
        },
        {
          "internalType": "address[]",
          "name": "tokenAddresses",
          "type": "address[]"
        }
      ],
      "name": "getBalances",
      "outputs": [
        {
          "internalType": "uint256[]",
          "name": "",
          "type": "uint256[]"
        }
      ],
      "stateMutability": "view",
      "type": "function"
    }
  ],
  "bytecode": "0x608060405234801561001057600080fd5b50610613806100206000396000f3fe608060405234801561001057600080fd5b506004361061002b5760003560e01c80636a385ae914610030575b600080fd5b61004a6004803603810190610045919061036d565b610060565b6040516100579190610491565b60405180910390f35b60606000825167ffffffffffffffff81111561007f5761007e61022a565b5b6040519080825280602002602001820160405280156100ad5781602001602082028036833780820191505090505b50905060005b83518110156101975760008482815181106100d1576100d06104b3565b5b602002602001015190508073ffffffffffffffffffffffffffffffffffffffff166370a08231876040518263ffffffff1660e01b815260040161011491906104f1565b60206040518083038186803b15801561012c57600080fd5b505afa158015610140573d6000803e3d6000fd5b505050506040513d601f19601f820116820180604052508101906101649190610538565b838381518110610177576101766104b3565b5b60200260200101818152505050808061018f90610594565b9150506100b3565b508091505092915050565b6000604051905090565b600080fd5b600080fd5b600073ffffffffffffffffffffffffffffffffffffffff82169050919050565b60006101e1826101b6565b9050919050565b6101f1816101d6565b81146101fc57600080fd5b50565b60008135905061020e816101e8565b92915050565b600080fd5b6000601f19601f8301169050919050565b7f4e487b7100000000000000000000000000000000000000000000000000000000600052604160045260246000fd5b61026282610219565b810181811067ffffffffffffffff821117156102815761028061022a565b5b80604052505050565b60006102946101a2565b90506102a08282610259565b919050565b600067ffffffffffffffff8211156102c0576102bf61022a565b5b602082029050602081019050919050565b600080fd5b60006102e96102e4846102a5565b61028a565b9050808382526020820190506020840283018581111561030c5761030b6102d1565b5b835b81811015610335578061032188826101ff565b84526020840193505060208101905061030e565b5050509392505050565b600082601f83011261035457610353610214565b5b81356103648482602086016102d6565b91505092915050565b60008060408385031215610384576103836101ac565b5b6000610392858286016101ff565b925050602083013567ffffffffffffffff8111156103b3576103b26101b1565b5b6103bf8582860161033f565b9150509250929050565b600081519050919050565b600082825260208201905092915050565b6000819050602082019050919050565b6000819050919050565b610408816103f5565b82525050565b600061041a83836103ff565b60208301905092915050565b6000602082019050919050565b600061043e826103c9565b61044881856103d4565b9350610453836103e5565b8060005b8381101561048457815161046b888261040e565b975061047683610426565b925050600181019050610457565b5085935050505092915050565b600060208201905081810360008301526104ab8184610433565b905092915050565b7f4e487b7100000000000000000000000000000000000000000000000000000000600052603260045260246000fd5b6104eb816101d6565b82525050565b600060208201905061050660008301846104e2565b92915050565b610515816103f5565b811461052057600080fd5b50565b6000815190506105328161050c565b92915050565b60006020828403121561054e5761054d6101ac565b5b600061055c84828501610523565b91505092915050565b7f4e487b7100000000000000000000000000000000000000000000000000000000600052601160045260246000fd5b600061059f826103f5565b91507fffffffffffffffffffffffffffffffffffffffffffffffffffffffffffffffff8214156105d2576105d1610565565b5b60018201905091905056fea26469706673582212209f9cc4792835b3695f7545fe88498db02f6cdcfda4e63694f4de7f59c6cf24ee64736f6c63430008090033",
  "linkReferences": {},
  "deployedLinkReferences": {}
}